:100000000C942A000C943F000C943F000C943F0089
:100010000C943F000C943F000C943F000C943F0064
:100020000C943F000C943F000C943F000C943F0054
:100030000C943F000C943F000C943F000C943F0044
:100040000C943F000C943F000C943F000C943F0034
:100050000C943F0011241FBECFE5D4E0DEBFCDBF1E
:1000600010E0A0E6B0E0E0EEF3E002C005900D92F3
:10007000A438B107D9F70E94FF000C94EE010C944C
:100080000000D998DA984AEF50E0FA013197F1F779
:10009000DB9AFA013197F1F79BB3282F207F9F70ED
:1000A000292B2BBBFA013197F1F7DB98FA01319735
:1000B000F1F7DB9AFA013197F1F79BB38295807FD4
:1000C0009F70982B9BBBCA010197F1F7DB98CA017F
:1000D0000197F1F708958AB38E608ABB8AB3806F67
:1000E0008ABB82E00E94410088E20E9441008CE0CD
:1000F0000E94410081E00E9441000895D99ADA9857
:100100004AEF50E0FA013197F1F7DB9AFA013197A3
:10011000F1F79BB3282F207F9F70292B2BBBFA016F
:100120003197F1F7DB98FA013197F1F7DB9AFA0191
:100130003197F1F79BB38295807F9F70982B9BBB83
:10014000CA010197F1F7DB98CA010197F1F7089509
:100150001F93CF93DF93EC0110E003C00E947E0059
:100160001F5FFE01E10FF11D80818823B9F7DF9148
:10017000CF911F910895813039F0813050F0823055
:1001800029F0833031F404C0605C03C0605F01C0BB
:10019000605B862F80680E94410008950F931F9333
:1001A0008A010E94BB00C8010E94A8001F910F9104
:1001B000089581E00E94410008950F931F93DF93FB
:1001C000CF93CDB7DEB760970FB6F894DEBF0FBE02
:1001D000CDBF8E010F5F1F4FB8014AE050E00E9473
:1001E000A901C8010E94A80060960FB6F894DEBF6E
:1001F0000FBECDBFCF91DF911F910F910895EF9268
:10020000FF920F931F93CF93DF930E947301BA98CD
:100210000E946B0080E690E00E94A800EE24FF247C
:100220008701C4E2D4EFB29B0BC0CE010197F1F776
:10023000B29B12C00894E11CF11C011D111D0CC0E1
:100240009C9B0AC0CE010197F1F79C9B05C00894C6
:10025000E108F108010911098E2D0E947D0180E05D
:1002600090E06DE070E00E94BB00C7010E94DD00DD
:10027000DACFBC9ABD9ABE98BF9A80E58DB9089531
:10028000BC98BD98BE9ABF9880E48DB908958FB987
:10029000779BFECF0895779BFECF8FB1089520E026
:1002A00004C0EFB9779BFECF2F5FFC01E20FF11D79
:1002B000E081EE23B1F70895DC01779BFECF8FB18B
:1002C0008C9390E008C09F5F779BFECF8FB1FD01BC
:1002D000E90FF11D8083FD01E90FF11D808183325B
:1002E00091F71082089582E08BB988E18AB986E897
:1002F00080BD10BC8CE089B908955D9BFECF8CB9A0
:1003000008955F9BFECF8CB1089520E004C05D9BF3
:10031000FECFECB92F5FFC01E20FF11DE081EE236F
:10032000B1F70895DC015F9BFECF8CB18C9390E018
:1003300008C09F5F5F9BFECF8CB1FD01E90FF11DEF
:100340008083FD01E90FF11D8081833291F71082D6
:100350000895FB019F01E8944230C4F04532B4F4A3
:100360004A3029F497FB1EF4909581959F4F642F96
:1003700077270E94DA01805D8A330CF0895D8193D2
:10038000CB010097A1F716F45DE251931082C901E9
:100390000C94CA01DC01FC01672F71917723E1F70E
:1003A000329704C07C916D9370836291AE17BF0742
:1003B000C8F30895AA1BBB1B51E107C0AA1FBB1FAE
:1003C000A617B70710F0A61BB70B881F991F5A95E1
:1003D000A9F780959095BC01CD010895F894FFCFC1
:1003E0005468652056616C7565203D200000010051
:1003F000FF000002FA00FF00FF0000FF000048427B
:0404000000007F4336
:00000001FF
